{
  "contractName": "Flashloan",
  "abi": [
    {
      "inputs": [
        {
          "name": "kyberAddress",
          "type": "address"
        },
        {
          "name": "uniswapAddress",
          "type": "address"
        },
        {
          "name": "wethAddress",
          "type": "address"
        },
        {
          "name": "daiAddress",
          "type": "address"
        },
        {
          "name": "beneficiaryAddress",
          "type": "address"
        }
      ],
      "payable": false,
      "stateMutability": "nonpayable",
      "type": "constructor"
    },
    {
      "payable": true,
      "stateMutability": "payable",
      "type": "fallback"
    },
    {
      "anonymous": false,
      "inputs": [
        {
          "indexed": false,
          "name": "direction",
          "type": "uint8"
        },
        {
          "indexed": false,
          "name": "profit",
          "type": "uint256"
        },
        {
          "indexed": false,
          "name": "date",
          "type": "uint256"
        }
      ],
      "name": "NewArbitrage",
      "type": "event"
    },
    {
      "constant": false,
      "inputs": [
        {
          "name": "sender",
          "type": "address"
        },
        {
          "components": [
            {
              "name": "owner",
              "type": "address"
            },
            {
              "name": "number",
              "type": "uint256"
            }
          ],
          "name": "account",
          "type": "tuple"
        },
        {
          "name": "data",
          "type": "bytes"
        }
      ],
      "name": "callFunction",
      "outputs": [],
      "payable": false,
      "stateMutability": "nonpayable",
      "type": "function"
    },
    {
      "constant": false,
      "inputs": [
        {
          "name": "_solo",
          "type": "address"
        },
        {
          "name": "_token",
          "type": "address"
        },
        {
          "name": "_amount",
          "type": "uint256"
        },
        {
          "name": "_direction",
          "type": "uint8"
        }
      ],
      "name": "initiateFlashloan",
      "outputs": [],
      "payable": false,
      "stateMutability": "nonpayable",
      "type": "function"
    }
  ],
  "bytecode": "0x60806040523480156200001157600080fd5b5060405160a080620029d8833981018060405262000033919081019062000198565b846000806101000a81548173ffffffffffffffffffffffffffffffffffffffff021916908373ffffffffffffffffffffffffffffffffffffffff16021790555083600160006101000a81548173ffffffffffffffffffffffffffffffffffffffff021916908373ffffffffffffffffffffffffffffffffffffffff16021790555082600260006101000a81548173ffffffffffffffffffffffffffffffffffffffff021916908373ffffffffffffffffffffffffffffffffffffffff16021790555081600360006101000a81548173ffffffffffffffffffffffffffffffffffffffff021916908373ffffffffffffffffffffffffffffffffffffffff16021790555080600460006101000a81548173ffffffffffffffffffffffffffffffffffffffff021916908373ffffffffffffffffffffffffffffffffffffffff16021790555050505050506200024e565b60006200019082516200023a565b905092915050565b600080600080600060a08688031215620001b157600080fd5b6000620001c18882890162000182565b9550506020620001d48882890162000182565b9450506040620001e78882890162000182565b9350506060620001fa8882890162000182565b92505060806200020d8882890162000182565b9150509295509295909350565b600073ffffffffffffffffffffffffffffffffffffffff82169050919050565b600062000247826200021a565b9050919050565b61277a806200025e6000396000f3fe60806040526004361061004c576000357c0100000000000000000000000000000000000000000000000000000000900463ffffffff1680638b4187131461004e578063c013147614610077575b005b34801561005a57600080fd5b5061007560048036036100709190810190611c23565b6100a0565b005b34801561008357600080fd5b5061009e60048036036100999190810190611bc0565b61108c565b005b6100a86117f8565b818060200190516100bc9190810190611cf4565b90506000600360009054906101000a900473ffffffffffffffffffffffffffffffffffffffff1673ffffffffffffffffffffffffffffffffffffffff166370a08231306040518263ffffffff167c010000000000000000000000000000000000000000000000000000000002815260040161013791906121ba565b60206040518083038186803b15801561014f57600080fd5b505afa158015610163573d6000803e3d6000fd5b505050506040513d601f19601f820116820180604052506101879190810190611d1d565b90506000600181111561019657fe5b826000015160018111156101a657fe5b141561079357600360009054906101000a900473ffffffffffffffffffffffffffffffffffffffff1673ffffffffffffffffffffffffffffffffffffffff1663095ea7b36000809054906101000a900473ffffffffffffffffffffffffffffffffffffffff16836040518363ffffffff167c01000000000000000000000000000000000000000000000000000000000281526004016102469291906121d5565b602060405180830381600087803b15801561026057600080fd5b505af1158015610274573d6000803e3d6000fd5b505050506040513d601f19601f820116820180604052506102989190810190611ccb565b5060008060009054906101000a900473ffffffffffffffffffffffffffffffffffffffff1673ffffffffffffffffffffffffffffffffffffffff1663809a9e55600360009054906101000a900473ffffffffffffffffffffffffffffffffffffffff1673eeeeeeeeeeeeeeeeeeeeeeeeeeeeeeeeeeeeeeee856040518463ffffffff167c010000000000000000000000000000000000000000000000000000000002815260040161034b93929190612235565b604080518083038186803b15801561036257600080fd5b505afa158015610376573d6000803e3d6000fd5b505050506040513d601f19601f8201168201806040525061039a9190810190611d46565b5090506000809054906101000a900473ffffffffffffffffffffffffffffffffffffffff1673ffffffffffffffffffffffffffffffffffffffff16633bba21dc600360009054906101000a900473ffffffffffffffffffffffffffffffffffffffff1684846040518463ffffffff167c010000000000000000000000000000000000000000000000000000000002815260040161043993929190612295565b602060405180830381600087803b15801561045357600080fd5b505af1158015610467573d6000803e3d6000fd5b505050506040513d601f19601f8201168201806040525061048b9190810190611d1d565b50606060026040519080825280602002602001820160405280156104be5781602001602082028038833980820191505090505b509050600260009054906101000a900473ffffffffffffffffffffffffffffffffffffffff168160008151811015156104f357fe5b9060200190602002019073ffffffffffffffffffffffffffffffffffffffff16908173ffffffffffffffffffffffffffffffffffffffff1681525050600360009054906101000a900473ffffffffffffffffffffffffffffffffffffffff1681600181518110151561056157fe5b9060200190602002019073ffffffffffffffffffffffffffffffffffffffff16908173ffffffffffffffffffffffffffffffffffffffff16815250506060600160009054906101000a900473ffffffffffffffffffffffffffffffffffffffff1673ffffffffffffffffffffffffffffffffffffffff1663d06ca61f3073ffffffffffffffffffffffffffffffffffffffff1631846040518363ffffffff167c010000000000000000000000000000000000000000000000000000000002815260040161062f929190612399565b60006040518083038186803b15801561064757600080fd5b505afa15801561065b573d6000803e3d6000fd5b505050506040513d6000823e3d601f19601f820116820180604052506106849190810190611c8a565b9050600160009054906101000a900473ffffffffffffffffffffffffffffffffffffffff1673ffffffffffffffffffffffffffffffffffffffff16637ff36ab53073ffffffffffffffffffffffffffffffffffffffff16318360018151811015156106eb57fe5b906020019060200201518530426040518663ffffffff167c010000000000000000000000000000000000000000000000000000000002815260040161073394939291906123c9565b6000604051808303818588803b15801561074c57600080fd5b505af1158015610760573d6000803e3d6000fd5b50505050506040513d6000823e3d601f19601f8201168201806040525061078a9190810190611c8a565b50505050610d77565b600360009054906101000a900473ffffffffffffffffffffffffffffffffffffffff1673ffffffffffffffffffffffffffffffffffffffff1663095ea7b3600160009054906101000a900473ffffffffffffffffffffffffffffffffffffffff16836040518363ffffffff167c010000000000000000000000000000000000000000000000000000000002815260040161082e9291906121d5565b602060405180830381600087803b15801561084857600080fd5b505af115801561085c573d6000803e3d6000fd5b505050506040513d601f19601f820116820180604052506108809190810190611ccb565b50606060026040519080825280602002602001820160405280156108b35781602001602082028038833980820191505090505b509050600360009054906101000a900473ffffffffffffffffffffffffffffffffffffffff168160008151811015156108e857fe5b9060200190602002019073ffffffffffffffffffffffffffffffffffffffff16908173ffffffffffffffffffffffffffffffffffffffff1681525050600260009054906101000a900473ffffffffffffffffffffffffffffffffffffffff1681600181518110151561095657fe5b9060200190602002019073ffffffffffffffffffffffffffffffffffffffff16908173ffffffffffffffffffffffffffffffffffffffff16815250506060600160009054906101000a900473ffffffffffffffffffffffffffffffffffffffff1673ffffffffffffffffffffffffffffffffffffffff1663d06ca61f84846040518363ffffffff167c0100000000000000000000000000000000000000000000000000000000028152600401610a0d929190612399565b60006040518083038186803b158015610a2557600080fd5b505afa158015610a39573d6000803e3d6000fd5b505050506040513d6000823e3d601f19601f82011682018060405250610a629190810190611c8a565b9050600160009054906101000a900473ffffffffffffffffffffffffffffffffffffffff1673ffffffffffffffffffffffffffffffffffffffff166318cbafe584836001815181101515610ab257fe5b906020019060200201518530426040518663ffffffff167c0100000000000000000000000000000000000000000000000000000000028152600401610afb959493929190612415565b600060405180830381600087803b158015610b1557600080fd5b505af1158015610b29573d6000803e3d6000fd5b505050506040513d6000823e3d601f19601f82011682018060405250610b529190810190611c8a565b5060008060009054906101000a900473ffffffffffffffffffffffffffffffffffffffff1673ffffffffffffffffffffffffffffffffffffffff1663809a9e5573eeeeeeeeeeeeeeeeeeeeeeeeeeeeeeeeeeeeeeee600360009054906101000a900473ffffffffffffffffffffffffffffffffffffffff163073ffffffffffffffffffffffffffffffffffffffff16316040518463ffffffff167c0100000000000000000000000000000000000000000000000000000000028152600401610c1c93929190612235565b604080518083038186803b158015610c3357600080fd5b505afa158015610c47573d6000803e3d6000fd5b505050506040513d601f19601f82011682018060405250610c6b9190810190611d46565b5090506000809054906101000a900473ffffffffffffffffffffffffffffffffffffffff1673ffffffffffffffffffffffffffffffffffffffff16637a2a04563073ffffffffffffffffffffffffffffffffffffffff1631600360009054906101000a900473ffffffffffffffffffffffffffffffffffffffff16846040518463ffffffff167c0100000000000000000000000000000000000000000000000000000000028152600401610d2092919061226c565b6020604051808303818588803b158015610d3957600080fd5b505af1158015610d4d573d6000803e3d6000fd5b50505050506040513d601f19601f82011682018060405250610d729190810190611d1d565b505050505b8160200151600360009054906101000a900473ffffffffffffffffffffffffffffffffffffffff1673ffffffffffffffffffffffffffffffffffffffff166370a08231306040518263ffffffff167c0100000000000000000000000000000000000000000000000000000000028152600401610df391906121ba565b60206040518083038186803b158015610e0b57600080fd5b505afa158015610e1f573d6000803e3d6000fd5b505050506040513d601f19601f82011682018060405250610e439190810190611d1d565b10151515610e86576040517f08c379a0000000000000000000000000000000000000000000000000000000008152600401610e7d90612323565b60405180910390fd5b60008260200151600360009054906101000a900473ffffffffffffffffffffffffffffffffffffffff1673ffffffffffffffffffffffffffffffffffffffff166370a08231306040518263ffffffff167c0100000000000000000000000000000000000000000000000000000000028152600401610f0491906121ba565b60206040518083038186803b158015610f1c57600080fd5b505afa158015610f30573d6000803e3d6000fd5b505050506040513d601f19601f82011682018060405250610f549190810190611d1d565b039050600360009054906101000a900473ffffffffffffffffffffffffffffffffffffffff1673ffffffffffffffffffffffffffffffffffffffff1663a9059cbb600460009054906101000a900473ffffffffffffffffffffffffffffffffffffffff16836040518363ffffffff167c0100000000000000000000000000000000000000000000000000000000028152600401610ff29291906121d5565b602060405180830381600087803b15801561100c57600080fd5b505af1158015611020573d6000803e3d6000fd5b505050506040513d601f19601f820116820180604052506110449190810190611ccb565b507fa89b78c8d1240154beaf4b865d2d7cb794ac0f358c618aef3de102cf4a4ee42d8360000151824260405161107c939291906122cc565b60405180910390a1505050505050565b6000849050600061109d868661133d565b905060006110aa85611527565b90508573ffffffffffffffffffffffffffffffffffffffff1663095ea7b388836040518363ffffffff167c01000000000000000000000000000000000000000000000000000000000281526004016111039291906121d5565b602060405180830381600087803b15801561111d57600080fd5b505af1158015611131573d6000803e3d6000fd5b505050506040513d601f19601f820116820180604052506111559190810190611ccb565b506060600360405190808252806020026020018201604052801561119357816020015b61118061181d565b8152602001906001900390816111785790505b5090506111a08387611544565b8160008151811015156111af57fe5b9060200190602002018190525061120360408051908101604052808760018111156111d657fe5b8152602001848152506040516020016111ef9190612363565b604051602081830303815290604052611600565b81600181518110151561121257fe5b9060200190602002018190525061122983836116ac565b81600281518110151561123857fe5b906020019060200201819052506060600160405190808252806020026020018201604052801561128257816020015b61126f61188a565b8152602001906001900390816112675790505b50905061128d611768565b81600081518110151561129c57fe5b906020019060200201819052508473ffffffffffffffffffffffffffffffffffffffff1663a67a6a4582846040518363ffffffff167c01000000000000000000000000000000000000000000000000000000000281526004016113009291906121fe565b600060405180830381600087803b15801561131a57600080fd5b505af115801561132e573d6000803e3d6000fd5b50505050505050505050505050565b60008083905060008173ffffffffffffffffffffffffffffffffffffffff1663295c39a56040518163ffffffff167c010000000000000000000000000000000000000000000000000000000002815260040160206040518083038186803b1580156113a757600080fd5b505afa1580156113bb573d6000803e3d6000fd5b505050506040513d601f19601f820116820180604052506113df9190810190611d1d565b9050600080600090505b828110156114e5578373ffffffffffffffffffffffffffffffffffffffff1663062bd3e9826040518263ffffffff167c0100000000000000000000000000000000000000000000000000000000028152600401611446919061237e565b60206040518083038186803b15801561145e57600080fd5b505afa158015611472573d6000803e3d6000fd5b505050506040513d601f19601f820116820180604052506114969190810190611b97565b91508573ffffffffffffffffffffffffffffffffffffffff168273ffffffffffffffffffffffffffffffffffffffff1614156114d85780945050505050611521565b80806001019150506113e9565b506040517f08c379a000000000000000000000000000000000000000000000000000000000815260040161151890612343565b60405180910390fd5b92915050565b600061153d6002836117a190919063ffffffff16565b9050919050565b61154c6118ba565b610100604051908101604052806001600881111561156657fe5b8152602001600081526020016080604051908101604052806000151581526020016000600181111561159457fe5b8152602001600060018111156115a657fe5b8152602001858152508152602001848152602001600081526020013073ffffffffffffffffffffffffffffffffffffffff168152602001600081526020016020604051908101604052806000815250815250905092915050565b6116086118ba565b6101006040519081016040528060088081111561162157fe5b8152602001600081526020016080604051908101604052806000151581526020016000600181111561164f57fe5b81526020016000600181111561166157fe5b81526020016000815250815260200160008152602001600081526020013073ffffffffffffffffffffffffffffffffffffffff16815260200160008152602001838152509050919050565b6116b46118ba565b61010060405190810160405280600060088111156116ce57fe5b815260200160008152602001608060405190810160405280600115158152602001600060018111156116fc57fe5b81526020016000600181111561170e57fe5b8152602001858152508152602001848152602001600081526020013073ffffffffffffffffffffffffffffffffffffffff168152602001600081526020016020604051908101604052806000815250815250905092915050565b611770611927565b60408051908101604052803073ffffffffffffffffffffffffffffffffffffffff1681526020016001815250905090565b60008082840190508381101515156117ee576040517f08c379a00000000000000000000000000000000000000000000000000000000081526004016117e590612303565b60405180910390fd5b8091505092915050565b60408051908101604052806000600181111561181057fe5b8152602001600081525090565b610160604051908101604052806000600881111561183757fe5b81526020016000815260200161184b611957565b81526020016000815260200160008152602001600073ffffffffffffffffffffffffffffffffffffffff16815260200160008152602001606081525090565b6040805190810160405280600073ffffffffffffffffffffffffffffffffffffffff168152602001600081525090565b61016060405190810160405280600060088111156118d457fe5b8152602001600081526020016118e8611957565b81526020016000815260200160008152602001600073ffffffffffffffffffffffffffffffffffffffff16815260200160008152602001606081525090565b6040805190810160405280600073ffffffffffffffffffffffffffffffffffffffff168152602001600081525090565b6080604051908101604052806000151581526020016000600181111561197957fe5b81526020016000600181111561198b57fe5b8152602001600081525090565b60006119a4823561260a565b905092915050565b60006119b8825161260a565b905092915050565b600082601f83011215156119d357600080fd5b81516119e66119e18261249c565b61246f565b91508181835260208401935060208101905083856020840282011115611a0b57600080fd5b60005b83811015611a3b5781611a218882611b83565b845260208401935060208301925050600181019050611a0e565b5050505092915050565b6000611a51825161261c565b905092915050565b600082601f8301121515611a6c57600080fd5b8135611a7f611a7a826124c4565b61246f565b91508082526020830160208301858383011115611a9b57600080fd5b611aa68382846126ed565b50505092915050565b6000611abb8235612628565b905092915050565b6000611acf8251612628565b905092915050565b600060408284031215611ae957600080fd5b611af3604061246f565b90506000611b0384828501611ac3565b6000830152506020611b1784828501611b83565b60208301525092915050565b600060408284031215611b3557600080fd5b611b3f604061246f565b90506000611b4f84828501611998565b6000830152506020611b6384828501611b6f565b60208301525092915050565b6000611b7b8235612641565b905092915050565b6000611b8f8251612641565b905092915050565b600060208284031215611ba957600080fd5b6000611bb7848285016119ac565b91505092915050565b60008060008060808587031215611bd657600080fd5b6000611be487828801611998565b9450506020611bf587828801611998565b9350506040611c0687828801611b6f565b9250506060611c1787828801611aaf565b91505092959194509250565b600080600060808486031215611c3857600080fd5b6000611c4686828701611998565b9350506020611c5786828701611b23565b925050606084013567ffffffffffffffff811115611c7457600080fd5b611c8086828701611a59565b9150509250925092565b600060208284031215611c9c57600080fd5b600082015167ffffffffffffffff811115611cb657600080fd5b611cc2848285016119c0565b91505092915050565b600060208284031215611cdd57600080fd5b6000611ceb84828501611a45565b91505092915050565b600060408284031215611d0657600080fd5b6000611d1484828501611ad7565b91505092915050565b600060208284031215611d2f57600080fd5b6000611d3d84828501611b83565b91505092915050565b60008060408385031215611d5957600080fd5b6000611d6785828601611b83565b9250506020611d7885828601611b83565b9150509250929050565b611d8b8161264b565b82525050565b611d9a8161256a565b82525050565b6000611dab82612517565b808452602084019350611dbd836124f0565b60005b82811015611def57611dd3868351611d91565b611ddc82612543565b9150602086019550600181019050611dc0565b50849250505092915050565b6000611e0682612522565b80845260208401935083602082028501611e1f856124fd565b60005b84811015611e58578383038852611e3a838351612045565b9250611e4582612550565b9150602088019750600181019050611e22565b508196508694505050505092915050565b6000611e748261252d565b808452602084019350611e868361250a565b60005b82811015611eb857611e9c86835161217c565b611ea58261255d565b9150604086019550600181019050611e89565b50849250505092915050565b611ecd8161257c565b82525050565b6000611ede82612538565b808452611ef28160208601602086016126fc565b611efb8161272f565b602085010191505092915050565b611f128161265d565b82525050565b611f2181612681565b82525050565b611f3081612693565b82525050565b611f3f816126a5565b82525050565b611f4e816126b7565b82525050565b6000601b82527f536166654d6174683a206164646974696f6e206f766572666c6f7700000000006020830152604082019050919050565b6000602482527f4e6f7420656e6f7567682066756e647320746f2072657061792064796478206c60208301527f6f616e21000000000000000000000000000000000000000000000000000000006040830152606082019050919050565b6000602482527f4e6f206d61726b6574496420666f756e6420666f722070726f7669646564207460208301527f6f6b656e000000000000000000000000000000000000000000000000000000006040830152606082019050919050565b60006101608301600083015161205e6000860182611f18565b50602083015161207160208601826121ab565b5060408301516120846040860182612127565b50606083015161209760c08601826121ab565b5060808301516120aa60e08601826121ab565b5060a08301516120be610100860182611d91565b5060c08301516120d26101208601826121ab565b5060e08301518482036101408601526120eb8282611ed3565b9150508091505092915050565b60408201600082015161210e6000850182611f45565b50602082015161212160208501826121ab565b50505050565b60808201600082015161213d6000850182611ec4565b5060208201516121506020850182611f27565b5060408201516121636040850182611f36565b50606082015161217660608501826121ab565b50505050565b6040820160008201516121926000850182611d91565b5060208201516121a560208501826121ab565b50505050565b6121b481612600565b82525050565b60006020820190506121cf6000830184611d82565b92915050565b60006040820190506121ea6000830185611d91565b6121f760208301846121ab565b9392505050565b600060408201905081810360008301526122188185611e69565b9050818103602083015261222c8184611dfb565b90509392505050565b600060608201905061224a6000830186611f09565b6122576020830185611f09565b61226460408301846121ab565b949350505050565b60006040820190506122816000830185611f09565b61228e60208301846121ab565b9392505050565b60006060820190506122aa6000830186611f09565b6122b760208301856121ab565b6122c460408301846121ab565b949350505050565b60006060820190506122e16000830186611f45565b6122ee60208301856121ab565b6122fb60408301846121ab565b949350505050565b6000602082019050818103600083015261231c81611f54565b9050919050565b6000602082019050818103600083015261233c81611f8b565b9050919050565b6000602082019050818103600083015261235c81611fe8565b9050919050565b600060408201905061237860008301846120f8565b92915050565b600060208201905061239360008301846121ab565b92915050565b60006040820190506123ae60008301856121ab565b81810360208301526123c08184611da0565b90509392505050565b60006080820190506123de60008301876121ab565b81810360208301526123f08186611da0565b90506123ff6040830185611d82565b61240c60608301846121ab565b95945050505050565b600060a08201905061242a60008301886121ab565b61243760208301876121ab565b81810360408301526124498186611da0565b90506124586060830185611d82565b61246560808301846121ab565b9695505050505050565b6000604051905081810181811067ffffffffffffffff8211171561249257600080fd5b8060405250919050565b600067ffffffffffffffff8211156124b357600080fd5b602082029050602081019050919050565b600067ffffffffffffffff8211156124db57600080fd5b601f19601f8301169050602081019050919050565b6000602082019050919050565b6000602082019050919050565b6000602082019050919050565b600081519050919050565b600081519050919050565b600081519050919050565b600081519050919050565b6000602082019050919050565b6000602082019050919050565b6000602082019050919050565b6000612575826125e0565b9050919050565b60008115159050919050565b600060098210151561259657fe5b819050919050565b60006002821015156125ac57fe5b819050919050565b60006002821015156125c257fe5b819050919050565b60006002821015156125d857fe5b819050919050565b600073ffffffffffffffffffffffffffffffffffffffff82169050919050565b6000819050919050565b6000612615826125e0565b9050919050565b60008115159050919050565b600060028210151561263957600080fd5b819050919050565b6000819050919050565b6000612656826126c9565b9050919050565b60006126688261266f565b9050919050565b600061267a826125e0565b9050919050565b600061268c82612588565b9050919050565b600061269e8261259e565b9050919050565b60006126b0826125b4565b9050919050565b60006126c2826125ca565b9050919050565b60006126d4826126db565b9050919050565b60006126e6826125e0565b9050919050565b82818337600083830152505050565b60005b8381101561271a5780820151818401526020810190506126ff565b83811115612729576000848401525b50505050565b6000601f19601f830116905091905056fea265627a7a7230582064f1de23b5369c083cadbbc0eb8654f52979ca65f3994dd624575b9d57fdcfc56c6578706572696d656e74616cf50037",
  "source": "pragma solidity ^0.5.0;\r\npragma experimental ABIEncoderV2;\r\n\r\nimport \"@studydefi/money-legos/dydx/contracts/DydxFlashloanBase.sol\";\r\nimport \"@studydefi/money-legos/dydx/contracts/ICallee.sol\";\r\nimport {KyberNetworkProxy as IKyberNetworkProxy} from \"@studydefi/money-legos/kyber/contracts/KyberNetworkProxy.sol\";\r\n\r\nimport \"@openzeppelin/contracts/token/ERC20/IERC20.sol\";\r\nimport \"./IUniswapV2Router02.sol\";\r\nimport \"./IWeth.sol\";\r\n\r\ncontract Flashloan is ICallee, DydxFlashloanBase {\r\n    enum Direction {\r\n        KyberToUniswap,\r\n        UniswapToKyber\r\n    }\r\n    \r\n    struct ArbInfo {\r\n        Direction direction;\r\n        uint256 repayAmount;\r\n    }\r\n\r\n    event NewArbitrage(\r\n        Direction direction,\r\n        uint profit,\r\n        uint date\r\n    );\r\n\r\n    IKyberNetworkProxy kyber;\r\n    IUniswapV2Router02 uniswap;\r\n    IWeth weth;\r\n    IERC20 dai;\r\n    address beneficiary;\r\n    address constant KYBER_ETH_ADDRESS =\r\n        0xEeeeeEeeeEeEeeEeEeEeeEEEeeeeEeeeeeeeEEeE;\r\n\r\n    constructor(\r\n        address kyberAddress,\r\n        address uniswapAddress,\r\n        address wethAddress,\r\n        address daiAddress,\r\n        address beneficiaryAddress\r\n    ) public {\r\n        kyber = IKyberNetworkProxy(kyberAddress);\r\n        uniswap = IUniswapV2Router02(uniswapAddress);\r\n        weth = IWeth(wethAddress);\r\n        dai = IERC20(daiAddress);\r\n        beneficiary = beneficiaryAddress;\r\n    }\r\n\r\n    // This is the function that will be called postLoan\r\n    // i.e. Encode the logic to handle your flashloaned funds here\r\n    function callFunction(\r\n        address sender,\r\n        Account.Info memory account,\r\n        bytes memory data\r\n    ) public {\r\n        ArbInfo memory arbInfo = abi.decode(data, (ArbInfo));\r\n        uint256 balanceDai = dai.balanceOf(address(this));\r\n\r\n        if (arbInfo.direction == Direction.KyberToUniswap) {\r\n            //Buy ETH on Kyber\r\n            dai.approve(address(kyber), balanceDai);\r\n            (uint256 expectedRate, ) = kyber.getExpectedRate(\r\n                dai,\r\n                IERC20(KYBER_ETH_ADDRESS),\r\n                balanceDai\r\n            );\r\n            kyber.swapTokenToEther(dai, balanceDai, expectedRate);\r\n\r\n            //Sell ETH on Uniswap\r\n            address[] memory path = new address[](2);\r\n            path[0] = address(weth);\r\n            path[1] = address(dai);\r\n            uint256[] memory minOuts = uniswap.getAmountsOut(\r\n                address(this).balance,\r\n                path\r\n            );\r\n            uniswap.swapExactETHForTokens.value(address(this).balance)(\r\n                minOuts[1],\r\n                path,\r\n                address(this),\r\n                now\r\n            );\r\n        } else {\r\n            //Buy ETH on Uniswap\r\n            dai.approve(address(uniswap), balanceDai);\r\n            address[] memory path = new address[](2);\r\n            path[0] = address(dai);\r\n            path[1] = address(weth);\r\n            uint256[] memory minOuts = uniswap.getAmountsOut(balanceDai, path);\r\n            uniswap.swapExactTokensForETH(\r\n                balanceDai,\r\n                minOuts[1],\r\n                path,\r\n                address(this),\r\n                now\r\n            );\r\n            //Sell ETH on Kyber\r\n            (uint256 expectedRate, ) = kyber.getExpectedRate(\r\n                IERC20(KYBER_ETH_ADDRESS),\r\n                dai,\r\n                address(this).balance\r\n            );\r\n            kyber.swapEtherToToken.value(address(this).balance)(\r\n                dai,\r\n                expectedRate\r\n            );\r\n        }\r\n\r\n        require(\r\n            dai.balanceOf(address(this)) >= arbInfo.repayAmount,\r\n            \"Not enough funds to repay dydx loan!\"\r\n        );\r\n\r\n        uint profit = dai.balanceOf(address(this)) - arbInfo.repayAmount;\r\n        dai.transfer(beneficiary, profit);\r\n        emit NewArbitrage(arbInfo.direction, profit, now);\r\n    }\r\n\r\n    function initiateFlashloan(\r\n        address _solo,\r\n        address _token,\r\n        uint256 _amount,\r\n        Direction _direction\r\n    ) external {\r\n        ISoloMargin solo = ISoloMargin(_solo);\r\n\r\n        // Get marketId from token address\r\n        uint256 marketId = _getMarketIdFromTokenAddress(_solo, _token);\r\n\r\n        // Calculate repay amount (_amount + (2 wei))\r\n        // Approve transfer from\r\n        uint256 repayAmount = _getRepaymentAmountInternal(_amount);\r\n        IERC20(_token).approve(_solo, repayAmount);\r\n\r\n        // 1. Withdraw $\r\n        // 2. Call callFunction(...)\r\n        // 3. Deposit back $\r\n        Actions.ActionArgs[] memory operations = new Actions.ActionArgs[](3);\r\n\r\n        operations[0] = _getWithdrawAction(marketId, _amount);\r\n        operations[1] = _getCallAction(\r\n            // Encode MyCustomData for callFunction\r\n            abi.encode(\r\n                ArbInfo({direction: _direction, repayAmount: repayAmount})\r\n            )\r\n        );\r\n        operations[2] = _getDepositAction(marketId, repayAmount);\r\n\r\n        Account.Info[] memory accountInfos = new Account.Info[](1);\r\n        accountInfos[0] = _getAccountInfo();\r\n\r\n        solo.operate(accountInfos, operations);\r\n    }\r\n\r\n    function() external payable {}\r\n}\r\n",
  "sourcePath": "C:\\Users\\Emma\\profitable-flashloans\\contracts\\Flashloan.sol",
  "compiler": {
    "name": "solc",
    "version": "0.5.0+commit.1d4f565a.Emscripten.clang"
  },
  "schemaVersion": "3.4.4",
  "updatedAt": "2022-01-20T12:11:45.456Z",
  "devdoc": {
    "methods": {}
  },
  "userdoc": {
    "methods": {}
  }
}